{
  "_format": "hh-sol-artifact-1",
  "contractName": "CTMDAOVOTE",
  "sourceName": "contracts/CTMDAOVOTE.sol",
  "abi": [
    {
      "inputs": [],
      "stateMutability": "nonpayable",
      "type": "constructor"
    },
    {
      "anonymous": false,
      "inputs": [
        {
          "indexed": true,
          "internalType": "address",
          "name": "_owner",
          "type": "address"
        },
        {
          "indexed": true,
          "internalType": "address",
          "name": "_spender",
          "type": "address"
        },
        {
          "indexed": false,
          "internalType": "uint256",
          "name": "_value",
          "type": "uint256"
        }
      ],
      "name": "Approval",
      "type": "event"
    },
    {
      "anonymous": false,
      "inputs": [],
      "name": "ContinuumDAOMintEnded",
      "type": "event"
    },
    {
      "anonymous": false,
      "inputs": [
        {
          "indexed": true,
          "internalType": "address",
          "name": "_to",
          "type": "address"
        },
        {
          "indexed": false,
          "internalType": "uint256",
          "name": "_amount",
          "type": "uint256"
        }
      ],
      "name": "Mint",
      "type": "event"
    },
    {
      "anonymous": false,
      "inputs": [
        {
          "indexed": true,
          "internalType": "address",
          "name": "_from",
          "type": "address"
        },
        {
          "indexed": true,
          "internalType": "address",
          "name": "_to",
          "type": "address"
        },
        {
          "indexed": false,
          "internalType": "uint256",
          "name": "_value",
          "type": "uint256"
        }
      ],
      "name": "Transfer",
      "type": "event"
    },
    {
      "inputs": [],
      "name": "admin",
      "outputs": [
        {
          "internalType": "address",
          "name": "",
          "type": "address"
        }
      ],
      "stateMutability": "view",
      "type": "function"
    },
    {
      "inputs": [
        {
          "internalType": "address",
          "name": "",
          "type": "address"
        },
        {
          "internalType": "address",
          "name": "",
          "type": "address"
        }
      ],
      "name": "allowance",
      "outputs": [
        {
          "internalType": "uint256",
          "name": "",
          "type": "uint256"
        }
      ],
      "stateMutability": "view",
      "type": "function"
    },
    {
      "inputs": [
        {
          "internalType": "address",
          "name": "_spender",
          "type": "address"
        },
        {
          "internalType": "uint256",
          "name": "_value",
          "type": "uint256"
        }
      ],
      "name": "approve",
      "outputs": [
        {
          "internalType": "uint256",
          "name": "remaining",
          "type": "uint256"
        }
      ],
      "stateMutability": "nonpayable",
      "type": "function"
    },
    {
      "inputs": [
        {
          "internalType": "address",
          "name": "",
          "type": "address"
        }
      ],
      "name": "balanceOf",
      "outputs": [
        {
          "internalType": "uint256",
          "name": "",
          "type": "uint256"
        }
      ],
      "stateMutability": "view",
      "type": "function"
    },
    {
      "inputs": [],
      "name": "decimals",
      "outputs": [
        {
          "internalType": "uint8",
          "name": "",
          "type": "uint8"
        }
      ],
      "stateMutability": "view",
      "type": "function"
    },
    {
      "inputs": [],
      "name": "endMinting",
      "outputs": [],
      "stateMutability": "nonpayable",
      "type": "function"
    },
    {
      "inputs": [],
      "name": "holders",
      "outputs": [
        {
          "internalType": "uint256",
          "name": "",
          "type": "uint256"
        }
      ],
      "stateMutability": "view",
      "type": "function"
    },
    {
      "inputs": [
        {
          "internalType": "address",
          "name": "_to",
          "type": "address"
        },
        {
          "internalType": "uint256",
          "name": "_amount",
          "type": "uint256"
        }
      ],
      "name": "mint",
      "outputs": [],
      "stateMutability": "nonpayable",
      "type": "function"
    },
    {
      "inputs": [],
      "name": "mintingOver",
      "outputs": [
        {
          "internalType": "bool",
          "name": "",
          "type": "bool"
        }
      ],
      "stateMutability": "view",
      "type": "function"
    },
    {
      "inputs": [],
      "name": "name",
      "outputs": [
        {
          "internalType": "string",
          "name": "",
          "type": "string"
        }
      ],
      "stateMutability": "view",
      "type": "function"
    },
    {
      "inputs": [],
      "name": "symbol",
      "outputs": [
        {
          "internalType": "string",
          "name": "",
          "type": "string"
        }
      ],
      "stateMutability": "view",
      "type": "function"
    },
    {
      "inputs": [],
      "name": "totalSupply",
      "outputs": [
        {
          "internalType": "uint256",
          "name": "",
          "type": "uint256"
        }
      ],
      "stateMutability": "view",
      "type": "function"
    },
    {
      "inputs": [
        {
          "internalType": "address",
          "name": "_to",
          "type": "address"
        },
        {
          "internalType": "uint256",
          "name": "_value",
          "type": "uint256"
        }
      ],
      "name": "transfer",
      "outputs": [
        {
          "internalType": "bool",
          "name": "success",
          "type": "bool"
        }
      ],
      "stateMutability": "nonpayable",
      "type": "function"
    },
    {
      "inputs": [
        {
          "internalType": "address",
          "name": "_from",
          "type": "address"
        },
        {
          "internalType": "address",
          "name": "_to",
          "type": "address"
        },
        {
          "internalType": "uint256",
          "name": "_value",
          "type": "uint256"
        }
      ],
      "name": "transferFrom",
      "outputs": [
        {
          "internalType": "bool",
          "name": "success",
          "type": "bool"
        }
      ],
      "stateMutability": "nonpayable",
      "type": "function"
    }
  ],
  "bytecode": "0x608060405234801561001057600080fd5b50600280546001600160a01b0319163317905561075d806100326000396000f3fe608060405234801561001057600080fd5b50600436106100ea5760003560e01c806370a082311161008c578063a9059cbb11610066578063a9059cbb14610218578063dd62ed3e1461022b578063ef70aebf14610256578063f851a4401461025e57600080fd5b806370a08231146101c65780638188f71c146101e657806395d89b41146101ef57600080fd5b806323b872dd116100c857806323b872dd14610160578063313ce5671461018357806340c10f191461019d5780634b3bee0a146101b257600080fd5b806306fdde03146100ef578063095ea7b31461013657806318160ddd14610157575b600080fd5b61012060405180604001604052806012815260200171436f6e74696e75756d2044414f20566f746560701b81525081565b60405161012d91906105c0565b60405180910390f35b61014961014436600461062a565b610289565b60405190815260200161012d565b61014960005481565b61017361016e366004610654565b6102e2565b604051901515815260200161012d565b61018b601281565b60405160ff909116815260200161012d565b6101b06101ab36600461062a565b61033b565b005b60025461017390600160a01b900460ff1681565b6101496101d4366004610690565b60036020526000908152604090205481565b61014960015481565b6101206040518060400160405280600a81526020016943544d44414f564f544560b01b81525081565b61017361022636600461062a565b610497565b6101496102393660046106b2565b600460209081526000928352604080842090915290825290205481565b6101b06104ef565b600254610271906001600160a01b031681565b6040516001600160a01b03909116815260200161012d565b6000826001600160a01b0316336001600160a01b03167f8c5be1e5ebec7d5bd14f71427d1e84f3dd0314c0f7b2291e5b200ac8c7c3b925846040516102d091815260200190565b60405180910390a35060005b92915050565b6000826001600160a01b0316846001600160a01b03167fddf252ad1be2c89b69c2b068fc378daa952ba7f163c4a11628f55a4df523b3ef8460405161032991815260200190565b60405180910390a35060019392505050565b600254600160a01b900460ff161561038c5760405162461bcd60e51b815260206004820152600f60248201526e26b4b73a34b7339034b99037bb32b960891b60448201526064015b60405180910390fd5b6002546001600160a01b031633146103db5760405162461bcd60e51b815260206004820152601260248201527141646d696e206f6e6c79206d696e74696e6760701b6044820152606401610383565b6001600160a01b0382166000908152600360205260408120549003610410576001805490600061040a836106fb565b91905055505b6001600160a01b03821660009081526003602052604081208054839290610438908490610714565b92505081905550806000808282546104509190610714565b90915550506040518181526001600160a01b038316907f0f6798a560793a54c3bcfe86a93cde1e73087d944c0ea20544137d41213968859060200160405180910390a25050565b6000826001600160a01b0316336001600160a01b03167fddf252ad1be2c89b69c2b068fc378daa952ba7f163c4a11628f55a4df523b3ef846040516104de91815260200190565b60405180910390a350600192915050565b6002546001600160a01b031633146105365760405162461bcd60e51b815260206004820152600a60248201526941646d696e206f6e6c7960b01b6044820152606401610383565b600254600160a01b900460ff16156105825760405162461bcd60e51b815260206004820152600f60248201526e26b4b73a34b7339034b99037bb32b960891b6044820152606401610383565b6002805460ff60a01b1916600160a01b1790556040517fb353db43ba03e3cdc7bf7796f1b24554f30158d98b28989b86b17f43bc7ab89990600090a1565b600060208083528351808285015260005b818110156105ed578581018301518582016040015282016105d1565b506000604082860101526040601f19601f8301168501019250505092915050565b80356001600160a01b038116811461062557600080fd5b919050565b6000806040838503121561063d57600080fd5b6106468361060e565b946020939093013593505050565b60008060006060848603121561066957600080fd5b6106728461060e565b92506106806020850161060e565b9150604084013590509250925092565b6000602082840312156106a257600080fd5b6106ab8261060e565b9392505050565b600080604083850312156106c557600080fd5b6106ce8361060e565b91506106dc6020840161060e565b90509250929050565b634e487b7160e01b600052601160045260246000fd5b60006001820161070d5761070d6106e5565b5060010190565b808201808211156102dc576102dc6106e556fea26469706673582212206359271601b6f57951301fba42bfb72e7e1a2fcb72e6ed7b5003204e21ef08cf64736f6c63430008130033",
  "linkReferences": {},
  "deployedLinkReferences": {}
}